{
  "_format": "hh-sol-artifact-1",
  "contractName": "ContractOffsetter",
  "sourceName": "contracts/ContractOffsetter.sol",
  "abi": [
    {
      "anonymous": false,
      "inputs": [
        {
          "indexed": false,
          "internalType": "address",
          "name": "depositor",
          "type": "address"
        },
        {
          "indexed": false,
          "internalType": "address",
          "name": "erc20Address",
          "type": "address"
        },
        {
          "indexed": false,
          "internalType": "uint256",
          "name": "amountDeposited",
          "type": "uint256"
        }
      ],
      "name": "Deposited",
      "type": "event"
    },
    {
      "anonymous": false,
      "inputs": [
        {
          "indexed": false,
          "internalType": "address",
          "name": "offsetter",
          "type": "address"
        },
        {
          "indexed": false,
          "internalType": "address",
          "name": "retiredTCO2",
          "type": "address"
        },
        {
          "indexed": false,
          "internalType": "uint256",
          "name": "amountOffset",
          "type": "uint256"
        },
        {
          "indexed": false,
          "internalType": "address",
          "name": "offsetAddress",
          "type": "address"
        },
        {
          "indexed": false,
          "internalType": "uint256",
          "name": "latestOffsetNonce",
          "type": "uint256"
        }
      ],
      "name": "Offset",
      "type": "event"
    },
    {
      "anonymous": false,
      "inputs": [
        {
          "indexed": true,
          "internalType": "address",
          "name": "previousOwner",
          "type": "address"
        },
        {
          "indexed": true,
          "internalType": "address",
          "name": "newOwner",
          "type": "address"
        }
      ],
      "name": "OwnershipTransferred",
      "type": "event"
    },
    {
      "anonymous": false,
      "inputs": [
        {
          "indexed": false,
          "internalType": "address",
          "name": "redeemer",
          "type": "address"
        },
        {
          "indexed": false,
          "internalType": "address",
          "name": "receivedTCO2",
          "type": "address"
        },
        {
          "indexed": false,
          "internalType": "uint256",
          "name": "amountRedeemed",
          "type": "uint256"
        }
      ],
      "name": "Redeemed",
      "type": "event"
    },
    {
      "inputs": [
        {
          "internalType": "address",
          "name": "",
          "type": "address"
        },
        {
          "internalType": "address",
          "name": "",
          "type": "address"
        }
      ],
      "name": "balances",
      "outputs": [
        {
          "internalType": "uint256",
          "name": "",
          "type": "uint256"
        }
      ],
      "stateMutability": "view",
      "type": "function"
    },
    {
      "inputs": [],
      "name": "bctAddress",
      "outputs": [
        {
          "internalType": "address",
          "name": "",
          "type": "address"
        }
      ],
      "stateMutability": "view",
      "type": "function"
    },
    {
      "inputs": [],
      "name": "contractRegistry",
      "outputs": [
        {
          "internalType": "address",
          "name": "",
          "type": "address"
        }
      ],
      "stateMutability": "view",
      "type": "function"
    },
    {
      "inputs": [
        {
          "internalType": "address",
          "name": "_erc20Address",
          "type": "address"
        },
        {
          "internalType": "uint256",
          "name": "_amount",
          "type": "uint256"
        }
      ],
      "name": "deposit",
      "outputs": [],
      "stateMutability": "nonpayable",
      "type": "function"
    },
    {
      "inputs": [
        {
          "internalType": "address",
          "name": "",
          "type": "address"
        }
      ],
      "name": "lastOffsetNonce",
      "outputs": [
        {
          "internalType": "uint256",
          "name": "",
          "type": "uint256"
        }
      ],
      "stateMutability": "view",
      "type": "function"
    },
    {
      "inputs": [
        {
          "internalType": "address",
          "name": "_tco2Address",
          "type": "address"
        },
        {
          "internalType": "uint256",
          "name": "_amount",
          "type": "uint256"
        },
        {
          "internalType": "address",
          "name": "_offsetAddress",
          "type": "address"
        },
        {
          "internalType": "uint256",
          "name": "_nonce",
          "type": "uint256"
        }
      ],
      "name": "offset",
      "outputs": [],
      "stateMutability": "nonpayable",
      "type": "function"
    },
    {
      "inputs": [],
      "name": "owner",
      "outputs": [
        {
          "internalType": "address",
          "name": "",
          "type": "address"
        }
      ],
      "stateMutability": "view",
      "type": "function"
    },
    {
      "inputs": [
        {
          "internalType": "address",
          "name": "_desiredTCO2",
          "type": "address"
        },
        {
          "internalType": "uint256",
          "name": "_amount",
          "type": "uint256"
        }
      ],
      "name": "redeemBCT",
      "outputs": [],
      "stateMutability": "nonpayable",
      "type": "function"
    },
    {
      "inputs": [],
      "name": "renounceOwnership",
      "outputs": [],
      "stateMutability": "nonpayable",
      "type": "function"
    },
    {
      "inputs": [
        {
          "internalType": "address",
          "name": "_address",
          "type": "address"
        }
      ],
      "name": "setToucanContractRegistry",
      "outputs": [],
      "stateMutability": "nonpayable",
      "type": "function"
    },
    {
      "inputs": [
        {
          "internalType": "address",
          "name": "newOwner",
          "type": "address"
        }
      ],
      "name": "transferOwnership",
      "outputs": [],
      "stateMutability": "nonpayable",
      "type": "function"
    }
  ],
  "bytecode": "0x6080604052606580546001600160a01b031990811673f2438a14f668b1bba53408346288f3d7c71c10a11790915560668054909116736739d490670b2710dc7e79bb12e455de33ee1cb617905534801561005857600080fd5b50610eda806100686000396000f3fe608060405234801561001057600080fd5b50600436106100a95760003560e01c8063bf35983811610071578063bf3598381461011b578063c23f001f1461012e578063c2e4c61314610167578063df0c5e1514610187578063e882e37b1461019a578063f2fde38b146101ad57600080fd5b806347e7ef24146100ae578063715018a6146100c35780638da5cb5b146100cb5780639f0d2881146100f5578063abf410e514610108575b600080fd5b6100c16100bc366004610ca0565b6101c0565b005b6100c16102ba565b6033546001600160a01b03165b6040516001600160a01b0390911681526020015b60405180910390f35b6100c1610103366004610cc9565b6102f0565b6066546100d8906001600160a01b031681565b6100c1610129366004610ca0565b6104e0565b61015961013c366004610c6e565b606760209081526000928352604080842090915290825290205481565b6040519081526020016100ec565b610159610175366004610c54565b60686020526000908152604090205481565b6065546100d8906001600160a01b031681565b6100c16101a8366004610c54565b610794565b6100c16101bb366004610c54565b6107e0565b60006101cb8361087b565b90508061021f5760405162461bcd60e51b815260206004820152601860248201527f43616e2774206465706f736974207468697320746f6b656e000000000000000060448201526064015b60405180910390fd5b6102346001600160a01b038416333085610935565b3360009081526067602090815260408083206001600160a01b038716845290915281208054849290610267908490610e33565b9091555050604080513381526001600160a01b03851660208201529081018390527f8752a472e571a816aea92eec8dae9baf628e840f4929fbcc2d155e6233ff68a79060600160405180910390a1505050565b6033546001600160a01b031633146102e45760405162461bcd60e51b815260040161021690610dfe565b6102ee6000610995565b565b60006102fb8561087b565b90508061034a5760405162461bcd60e51b815260206004820152601860248201527f43616e277420726574697265207468697320746f6b656e2e00000000000000006044820152606401610216565b3360009081526067602090815260408083206001600160a01b03891684529091529020548411156103db5760405162461bcd60e51b815260206004820152603560248201527f596f7520646f6e2774206861766520656e6f756768206f6620746869732054436044820152742799101434b7103a34329031b7b73a3930b1ba149760591b6064820152608401610216565b604051633790cf5760e01b8152600481018590526001600160a01b03861690633790cf5790602401600060405180830381600087803b15801561041d57600080fd5b505af1158015610431573d6000803e3d6000fd5b50503360009081526067602090815260408083206001600160a01b038b16845290915281208054889450909250610469908490610e4b565b90915550506001600160a01b0383811660008181526068602090815260409182902086905581513381529389169084015282018690526060820152608081018390527f1e39d0d333c0dcc0acbab7891b880a3843a3c42f9564c75870a960a095ed32289060a0015b60405180910390a15050505050565b3360009081526067602090815260408083206065546001600160a01b031684529091529020548111156105695760405162461bcd60e51b815260206004820152602b60248201527f596f7520646f6e2774206861766520656e6f7567682042435420696e2074686960448201526a399031b7b73a3930b1ba1760a91b6064820152608401610216565b60006105748361087b565b9050806105c35760405162461bcd60e51b815260206004820181905260248201527f43616e27742072656465656d2042435420666f72207468697320746f6b656e2e6044820152606401610216565b604080516001808252818301909252600091602080830190803683375050604080516001808252818301909252929350600092915060208083019080368337019050509050848260008151811061062a57634e487b7160e01b600052603260045260246000fd5b60200260200101906001600160a01b031690816001600160a01b031681525050838160008151811061066c57634e487b7160e01b600052603260045260246000fd5b60209081029190910101526065546040516315aaa0a160e11b81526001600160a01b0390911690632b554142906106a99085908590600401610d48565b600060405180830381600087803b1580156106c357600080fd5b505af11580156106d7573d6000803e3d6000fd5b50503360009081526067602090815260408083206065546001600160a01b0316845290915281208054889450909250610711908490610e4b565b90915550503360009081526067602090815260408083206001600160a01b038916845290915281208054869290610749908490610e33565b9091555050604080513381526001600160a01b03871660208201529081018590527f27d4634c833b7622a0acddbf7f746183625f105945e95c723ad1d5a9f2a0b6fc906060016104d1565b6033546001600160a01b031633146107be5760405162461bcd60e51b815260040161021690610dfe565b606680546001600160a01b0319166001600160a01b0392909216919091179055565b6033546001600160a01b0316331461080a5760405162461bcd60e51b815260040161021690610dfe565b6001600160a01b03811661086f5760405162461bcd60e51b815260206004820152602660248201527f4f776e61626c653a206e6577206f776e657220697320746865207a65726f206160448201526564647265737360d01b6064820152608401610216565b61087881610995565b50565b60665460405163787d871360e01b81526001600160a01b038381166004830152600092839291169063787d87139060240160206040518083038186803b1580156108c457600080fd5b505afa1580156108d8573d6000803e3d6000fd5b505050506040513d601f19601f820116820180604052508101906108fc9190610d0c565b9050801561090d5750600192915050565b6065546001600160a01b038481169116141561092c5750600192915050565b50600092915050565b604080516001600160a01b0385811660248301528416604482015260648082018490528251808303909101815260849091019091526020810180516001600160e01b03166323b872dd60e01b17905261098f9085906109e7565b50505050565b603380546001600160a01b038381166001600160a01b0319831681179093556040519116919082907f8be0079c531659141344cd1fd0a4f28419497f9722a3daafe3b4186f6b6457e090600090a35050565b6000610a3c826040518060400160405280602081526020017f5361666545524332303a206c6f772d6c6576656c2063616c6c206661696c6564815250856001600160a01b0316610abe9092919063ffffffff16565b805190915015610ab95780806020019051810190610a5a9190610d0c565b610ab95760405162461bcd60e51b815260206004820152602a60248201527f5361666545524332303a204552433230206f7065726174696f6e20646964206e6044820152691bdd081cdd58d8d9595960b21b6064820152608401610216565b505050565b6060610acd8484600085610ad7565b90505b9392505050565b606082471015610b385760405162461bcd60e51b815260206004820152602660248201527f416464726573733a20696e73756666696369656e742062616c616e636520666f6044820152651c8818d85b1b60d21b6064820152608401610216565b843b610b865760405162461bcd60e51b815260206004820152601d60248201527f416464726573733a2063616c6c20746f206e6f6e2d636f6e74726163740000006044820152606401610216565b600080866001600160a01b03168587604051610ba29190610d2c565b60006040518083038185875af1925050503d8060008114610bdf576040519150601f19603f3d011682016040523d82523d6000602084013e610be4565b606091505b5091509150610bf4828286610bff565b979650505050505050565b60608315610c0e575081610ad0565b825115610c1e5782518084602001fd5b8160405162461bcd60e51b81526004016102169190610dcb565b80356001600160a01b0381168114610c4f57600080fd5b919050565b600060208284031215610c65578081fd5b610ad082610c38565b60008060408385031215610c80578081fd5b610c8983610c38565b9150610c9760208401610c38565b90509250929050565b60008060408385031215610cb2578182fd5b610cbb83610c38565b946020939093013593505050565b60008060008060808587031215610cde578182fd5b610ce785610c38565b935060208501359250610cfc60408601610c38565b9396929550929360600135925050565b600060208284031215610d1d578081fd5b81518015158114610ad0578182fd5b60008251610d3e818460208701610e62565b9190910192915050565b604080825283519082018190526000906020906060840190828701845b82811015610d8a5781516001600160a01b031684529284019290840190600101610d65565b50505083810382850152845180825285830191830190845b81811015610dbe57835183529284019291840191600101610da2565b5090979650505050505050565b6020815260008251806020840152610dea816040850160208701610e62565b601f01601f19169190910160400192915050565b6020808252818101527f4f776e61626c653a2063616c6c6572206973206e6f7420746865206f776e6572604082015260600190565b60008219821115610e4657610e46610e8e565b500190565b600082821015610e5d57610e5d610e8e565b500390565b60005b83811015610e7d578181015183820152602001610e65565b8381111561098f5750506000910152565b634e487b7160e01b600052601160045260246000fdfea26469706673582212208d8254dc638cf10c48a7736782135bf8cbd22dd8ed7802130e1e7ea0a303381b64736f6c63430008040033",
  "linkReferences": {},
  "deployedLinkReferences": {}
}