{
  "_format": "hh-sol-artifact-1",
  "contractName": "ContractOffsetter",
  "sourceName": "contracts/ContractOffsetter.sol",
  "abi": [
    {
      "anonymous": false,
      "inputs": [
        {
          "indexed": false,
          "internalType": "address",
          "name": "depositor",
          "type": "address"
        },
        {
          "indexed": false,
          "internalType": "address",
          "name": "erc20Address",
          "type": "address"
        },
        {
          "indexed": false,
          "internalType": "uint256",
          "name": "amountDeposited",
          "type": "uint256"
        }
      ],
      "name": "Deposited",
      "type": "event"
    },
    {
      "anonymous": false,
      "inputs": [
        {
          "indexed": false,
          "internalType": "address",
          "name": "offsetter",
          "type": "address"
        },
        {
          "indexed": false,
          "internalType": "address",
          "name": "retiredTCO2",
          "type": "address"
        },
        {
          "indexed": false,
          "internalType": "uint256",
          "name": "amountOffset",
          "type": "uint256"
        },
        {
          "indexed": false,
          "internalType": "address",
          "name": "offsetAddress",
          "type": "address"
        },
        {
          "indexed": false,
          "internalType": "uint256[]",
          "name": "offsetNonces",
          "type": "uint256[]"
        }
      ],
      "name": "Offset",
      "type": "event"
    },
    {
      "anonymous": false,
      "inputs": [
        {
          "indexed": true,
          "internalType": "address",
          "name": "previousOwner",
          "type": "address"
        },
        {
          "indexed": true,
          "internalType": "address",
          "name": "newOwner",
          "type": "address"
        }
      ],
      "name": "OwnershipTransferred",
      "type": "event"
    },
    {
      "anonymous": false,
      "inputs": [
        {
          "indexed": false,
          "internalType": "address",
          "name": "redeemer",
          "type": "address"
        },
        {
          "indexed": false,
          "internalType": "address",
          "name": "receivedTCO2",
          "type": "address"
        },
        {
          "indexed": false,
          "internalType": "uint256",
          "name": "amountRedeemed",
          "type": "uint256"
        }
      ],
      "name": "Redeemed",
      "type": "event"
    },
    {
      "inputs": [
        {
          "internalType": "address",
          "name": "",
          "type": "address"
        },
        {
          "internalType": "address",
          "name": "",
          "type": "address"
        }
      ],
      "name": "balances",
      "outputs": [
        {
          "internalType": "uint256",
          "name": "",
          "type": "uint256"
        }
      ],
      "stateMutability": "view",
      "type": "function"
    },
    {
      "inputs": [],
      "name": "bctAddress",
      "outputs": [
        {
          "internalType": "address",
          "name": "",
          "type": "address"
        }
      ],
      "stateMutability": "view",
      "type": "function"
    },
    {
      "inputs": [],
      "name": "contractRegistry",
      "outputs": [
        {
          "internalType": "address",
          "name": "",
          "type": "address"
        }
      ],
      "stateMutability": "view",
      "type": "function"
    },
    {
      "inputs": [
        {
          "internalType": "address",
          "name": "_erc20Address",
          "type": "address"
        },
        {
          "internalType": "uint256",
          "name": "_amount",
          "type": "uint256"
        }
      ],
      "name": "deposit",
      "outputs": [],
      "stateMutability": "nonpayable",
      "type": "function"
    },
    {
      "inputs": [
        {
          "internalType": "address",
          "name": "",
          "type": "address"
        },
        {
          "internalType": "uint256",
          "name": "",
          "type": "uint256"
        }
      ],
      "name": "nonceStatuses",
      "outputs": [
        {
          "internalType": "bool",
          "name": "",
          "type": "bool"
        }
      ],
      "stateMutability": "view",
      "type": "function"
    },
    {
      "inputs": [
        {
          "internalType": "address",
          "name": "_tco2Address",
          "type": "address"
        },
        {
          "internalType": "uint256",
          "name": "_amount",
          "type": "uint256"
        },
        {
          "internalType": "address",
          "name": "offsetAddress",
          "type": "address"
        },
        {
          "internalType": "uint256[]",
          "name": "offsetNonces",
          "type": "uint256[]"
        }
      ],
      "name": "offset",
      "outputs": [],
      "stateMutability": "nonpayable",
      "type": "function"
    },
    {
      "inputs": [],
      "name": "owner",
      "outputs": [
        {
          "internalType": "address",
          "name": "",
          "type": "address"
        }
      ],
      "stateMutability": "view",
      "type": "function"
    },
    {
      "inputs": [
        {
          "internalType": "address",
          "name": "_desiredTCO2",
          "type": "address"
        },
        {
          "internalType": "uint256",
          "name": "_amount",
          "type": "uint256"
        }
      ],
      "name": "redeemBCT",
      "outputs": [],
      "stateMutability": "nonpayable",
      "type": "function"
    },
    {
      "inputs": [],
      "name": "renounceOwnership",
      "outputs": [],
      "stateMutability": "nonpayable",
      "type": "function"
    },
    {
      "inputs": [
        {
          "internalType": "address",
          "name": "_address",
          "type": "address"
        }
      ],
      "name": "setToucanContractRegistry",
      "outputs": [],
      "stateMutability": "nonpayable",
      "type": "function"
    },
    {
      "inputs": [
        {
          "internalType": "address",
          "name": "newOwner",
          "type": "address"
        }
      ],
      "name": "transferOwnership",
      "outputs": [],
      "stateMutability": "nonpayable",
      "type": "function"
    }
  ],
  "bytecode": "0x6080604052606580546001600160a01b031990811673f2438a14f668b1bba53408346288f3d7c71c10a11790915560668054909116736739d490670b2710dc7e79bb12e455de33ee1cb617905534801561005857600080fd5b50611083806100686000396000f3fe608060405234801561001057600080fd5b50600436106100a95760003560e01c8063bf35983811610071578063bf3598381461011b578063c23f001f1461012e578063df0c5e1514610167578063e882e37b1461017a578063f10b1bf11461018d578063f2fde38b146101cb57600080fd5b806347e7ef24146100ae5780636a4c2035146100c3578063715018a6146100d65780638da5cb5b146100de578063abf410e514610108575b600080fd5b6100c16100bc366004610d1e565b6101de565b005b6100c16100d1366004610d47565b6102d8565b6100c1610528565b6033546001600160a01b03165b6040516001600160a01b0390911681526020015b60405180910390f35b6066546100eb906001600160a01b031681565b6100c1610129366004610d1e565b61055e565b61015961013c366004610cec565b606760209081526000928352604080842090915290825290205481565b6040519081526020016100ff565b6065546100eb906001600160a01b031681565b6100c1610188366004610cd2565b610812565b6101bb61019b366004610d1e565b606860209081526000928352604080842090915290825290205460ff1681565b60405190151581526020016100ff565b6100c16101d9366004610cd2565b61085e565b60006101e9836108f9565b90508061023d5760405162461bcd60e51b815260206004820152601860248201527f43616e2774206465706f736974207468697320746f6b656e000000000000000060448201526064015b60405180910390fd5b6102526001600160a01b0384163330856109b3565b3360009081526067602090815260408083206001600160a01b038716845290915281208054849290610285908490610fab565b9091555050604080513381526001600160a01b03851660208201529081018390527f8752a472e571a816aea92eec8dae9baf628e840f4929fbcc2d155e6233ff68a79060600160405180910390a1505050565b60006102e3856108f9565b9050806103325760405162461bcd60e51b815260206004820152601860248201527f43616e277420726574697265207468697320746f6b656e2e00000000000000006044820152606401610234565b3360009081526067602090815260408083206001600160a01b03891684529091529020548411156103c35760405162461bcd60e51b815260206004820152603560248201527f596f7520646f6e2774206861766520656e6f756768206f6620746869732054436044820152742799101434b7103a34329031b7b73a3930b1ba149760591b6064820152608401610234565b604051633790cf5760e01b8152600481018590526001600160a01b03861690633790cf5790602401600060405180830381600087803b15801561040557600080fd5b505af1158015610419573d6000803e3d6000fd5b50503360009081526067602090815260408083206001600160a01b038b16845290915281208054889450909250610451908490610fc3565b90915550600090505b82518110156104e1576001600160a01b03841660009081526068602052604081208451600192908690859081106104a157634e487b7160e01b600052603260045260246000fd5b6020026020010151815260200190815260200160002060006101000a81548160ff02191690831515021790555080806104d990611006565b91505061045a565b507f3ddea69e550ab13b91fe63ef523092a857c68028f3a8ae6a746790df9cb20b133386868686604051610519959493929190610ea8565b60405180910390a15050505050565b6033546001600160a01b031633146105525760405162461bcd60e51b815260040161023490610f76565b61055c6000610a13565b565b3360009081526067602090815260408083206065546001600160a01b031684529091529020548111156105e75760405162461bcd60e51b815260206004820152602b60248201527f596f7520646f6e2774206861766520656e6f7567682042435420696e2074686960448201526a399031b7b73a3930b1ba1760a91b6064820152608401610234565b60006105f2836108f9565b9050806106415760405162461bcd60e51b815260206004820181905260248201527f43616e27742072656465656d2042435420666f72207468697320746f6b656e2e6044820152606401610234565b60408051600180825281830190925260009160208083019080368337505060408051600180825281830190925292935060009291506020808301908036833701905050905084826000815181106106a857634e487b7160e01b600052603260045260246000fd5b60200260200101906001600160a01b031690816001600160a01b03168152505083816000815181106106ea57634e487b7160e01b600052603260045260246000fd5b60209081029190910101526065546040516315aaa0a160e11b81526001600160a01b0390911690632b554142906107279085908590600401610ee3565b600060405180830381600087803b15801561074157600080fd5b505af1158015610755573d6000803e3d6000fd5b50503360009081526067602090815260408083206065546001600160a01b031684529091528120805488945090925061078f908490610fc3565b90915550503360009081526067602090815260408083206001600160a01b0389168452909152812080548692906107c7908490610fab565b9091555050604080513381526001600160a01b03871660208201529081018590527f27d4634c833b7622a0acddbf7f746183625f105945e95c723ad1d5a9f2a0b6fc90606001610519565b6033546001600160a01b0316331461083c5760405162461bcd60e51b815260040161023490610f76565b606680546001600160a01b0319166001600160a01b0392909216919091179055565b6033546001600160a01b031633146108885760405162461bcd60e51b815260040161023490610f76565b6001600160a01b0381166108ed5760405162461bcd60e51b815260206004820152602660248201527f4f776e61626c653a206e6577206f776e657220697320746865207a65726f206160448201526564647265737360d01b6064820152608401610234565b6108f681610a13565b50565b60665460405163787d871360e01b81526001600160a01b038381166004830152600092839291169063787d87139060240160206040518083038186803b15801561094257600080fd5b505afa158015610956573d6000803e3d6000fd5b505050506040513d601f19601f8201168201806040525081019061097a9190610e32565b9050801561098b5750600192915050565b6065546001600160a01b03848116911614156109aa5750600192915050565b50600092915050565b604080516001600160a01b0385811660248301528416604482015260648082018490528251808303909101815260849091019091526020810180516001600160e01b03166323b872dd60e01b179052610a0d908590610a65565b50505050565b603380546001600160a01b038381166001600160a01b0319831681179093556040519116919082907f8be0079c531659141344cd1fd0a4f28419497f9722a3daafe3b4186f6b6457e090600090a35050565b6000610aba826040518060400160405280602081526020017f5361666545524332303a206c6f772d6c6576656c2063616c6c206661696c6564815250856001600160a01b0316610b3c9092919063ffffffff16565b805190915015610b375780806020019051810190610ad89190610e32565b610b375760405162461bcd60e51b815260206004820152602a60248201527f5361666545524332303a204552433230206f7065726174696f6e20646964206e6044820152691bdd081cdd58d8d9595960b21b6064820152608401610234565b505050565b6060610b4b8484600085610b55565b90505b9392505050565b606082471015610bb65760405162461bcd60e51b815260206004820152602660248201527f416464726573733a20696e73756666696369656e742062616c616e636520666f6044820152651c8818d85b1b60d21b6064820152608401610234565b843b610c045760405162461bcd60e51b815260206004820152601d60248201527f416464726573733a2063616c6c20746f206e6f6e2d636f6e74726163740000006044820152606401610234565b600080866001600160a01b03168587604051610c209190610e8c565b60006040518083038185875af1925050503d8060008114610c5d576040519150601f19603f3d011682016040523d82523d6000602084013e610c62565b606091505b5091509150610c72828286610c7d565b979650505050505050565b60608315610c8c575081610b4e565b825115610c9c5782518084602001fd5b8160405162461bcd60e51b81526004016102349190610f43565b80356001600160a01b0381168114610ccd57600080fd5b919050565b600060208284031215610ce3578081fd5b610b4e82610cb6565b60008060408385031215610cfe578081fd5b610d0783610cb6565b9150610d1560208401610cb6565b90509250929050565b60008060408385031215610d30578182fd5b610d3983610cb6565b946020939093013593505050565b60008060008060808587031215610d5c578182fd5b610d6585610cb6565b93506020808601359350610d7b60408701610cb6565b9250606086013567ffffffffffffffff80821115610d97578384fd5b818801915088601f830112610daa578384fd5b813581811115610dbc57610dbc611037565b8060051b604051601f19603f83011681018181108582111715610de157610de1611037565b604052828152858101935084860182860187018d1015610dff578788fd5b8795505b83861015610e21578035855260019590950194938601938601610e03565b50989b979a50959850505050505050565b600060208284031215610e43578081fd5b81518015158114610b4e578182fd5b6000815180845260208085019450808401835b83811015610e8157815187529582019590820190600101610e65565b509495945050505050565b60008251610e9e818460208701610fda565b9190910192915050565b6001600160a01b0386811682528581166020830152604082018590528316606082015260a060808201819052600090610c7290830184610e52565b604080825283519082018190526000906020906060840190828701845b82811015610f255781516001600160a01b031684529284019290840190600101610f00565b50505083810382850152610f398186610e52565b9695505050505050565b6020815260008251806020840152610f62816040850160208701610fda565b601f01601f19169190910160400192915050565b6020808252818101527f4f776e61626c653a2063616c6c6572206973206e6f7420746865206f776e6572604082015260600190565b60008219821115610fbe57610fbe611021565b500190565b600082821015610fd557610fd5611021565b500390565b60005b83811015610ff5578181015183820152602001610fdd565b83811115610a0d5750506000910152565b600060001982141561101a5761101a611021565b5060010190565b634e487b7160e01b600052601160045260246000fd5b634e487b7160e01b600052604160045260246000fdfea2646970667358221220634cabd000041d17729f0c01601e05382ec81f2daf7ee7215dbdc2e46926d59764736f6c63430008040033",
  "linkReferences": {},
  "deployedLinkReferences": {}
}