{
  "_format": "hh-sol-artifact-1",
  "contractName": "ContractOffsetter",
  "sourceName": "contracts/ContractOffsetter.sol",
  "abi": [
    {
      "anonymous": false,
      "inputs": [
        {
          "indexed": false,
          "internalType": "address",
          "name": "depositor",
          "type": "address"
        },
        {
          "indexed": false,
          "internalType": "address",
          "name": "erc20Address",
          "type": "address"
        },
        {
          "indexed": false,
          "internalType": "uint256",
          "name": "amountDeposited",
          "type": "uint256"
        }
      ],
      "name": "Deposited",
      "type": "event"
    },
    {
      "anonymous": false,
      "inputs": [
        {
          "indexed": false,
          "internalType": "address",
          "name": "offsetter",
          "type": "address"
        },
        {
          "indexed": false,
          "internalType": "address",
          "name": "retiredTCO2",
          "type": "address"
        },
        {
          "indexed": false,
          "internalType": "uint256",
          "name": "amountOffset",
          "type": "uint256"
        },
        {
          "indexed": false,
          "internalType": "address",
          "name": "offsetAddress",
          "type": "address"
        },
        {
          "indexed": false,
          "internalType": "uint256",
          "name": "latestOffsetNonce",
          "type": "uint256"
        }
      ],
      "name": "Offset",
      "type": "event"
    },
    {
      "anonymous": false,
      "inputs": [
        {
          "indexed": true,
          "internalType": "address",
          "name": "previousOwner",
          "type": "address"
        },
        {
          "indexed": true,
          "internalType": "address",
          "name": "newOwner",
          "type": "address"
        }
      ],
      "name": "OwnershipTransferred",
      "type": "event"
    },
    {
      "anonymous": false,
      "inputs": [
        {
          "indexed": false,
          "internalType": "address",
          "name": "redeemer",
          "type": "address"
        },
        {
          "indexed": false,
          "internalType": "address",
          "name": "receivedTCO2",
          "type": "address"
        },
        {
          "indexed": false,
          "internalType": "uint256",
          "name": "amountRedeemed",
          "type": "uint256"
        }
      ],
      "name": "Redeemed",
      "type": "event"
    },
    {
      "inputs": [
        {
          "internalType": "address",
          "name": "",
          "type": "address"
        },
        {
          "internalType": "address",
          "name": "",
          "type": "address"
        }
      ],
      "name": "balances",
      "outputs": [
        {
          "internalType": "uint256",
          "name": "",
          "type": "uint256"
        }
      ],
      "stateMutability": "view",
      "type": "function"
    },
    {
      "inputs": [],
      "name": "bctAddress",
      "outputs": [
        {
          "internalType": "address",
          "name": "",
          "type": "address"
        }
      ],
      "stateMutability": "view",
      "type": "function"
    },
    {
      "inputs": [],
      "name": "contractRegistry",
      "outputs": [
        {
          "internalType": "address",
          "name": "",
          "type": "address"
        }
      ],
      "stateMutability": "view",
      "type": "function"
    },
    {
      "inputs": [
        {
          "internalType": "address",
          "name": "_erc20Address",
          "type": "address"
        },
        {
          "internalType": "uint256",
          "name": "_amount",
          "type": "uint256"
        }
      ],
      "name": "deposit",
      "outputs": [],
      "stateMutability": "nonpayable",
      "type": "function"
    },
    {
      "inputs": [
        {
          "internalType": "address",
          "name": "",
          "type": "address"
        }
      ],
      "name": "lastOffsetNonce",
      "outputs": [
        {
          "internalType": "uint256",
          "name": "",
          "type": "uint256"
        }
      ],
      "stateMutability": "view",
      "type": "function"
    },
    {
      "inputs": [
        {
          "internalType": "address",
          "name": "_tco2Address",
          "type": "address"
        },
        {
          "internalType": "uint256",
          "name": "_amount",
          "type": "uint256"
        },
        {
          "internalType": "address",
          "name": "_offsetAddress",
          "type": "address"
        },
        {
          "internalType": "uint256",
          "name": "_nonce",
          "type": "uint256"
        }
      ],
      "name": "offset",
      "outputs": [],
      "stateMutability": "nonpayable",
      "type": "function"
    },
    {
      "inputs": [
        {
          "internalType": "address",
          "name": "",
          "type": "address"
        }
      ],
      "name": "overallOffsetAmount",
      "outputs": [
        {
          "internalType": "uint256",
          "name": "",
          "type": "uint256"
        }
      ],
      "stateMutability": "view",
      "type": "function"
    },
    {
      "inputs": [],
      "name": "owner",
      "outputs": [
        {
          "internalType": "address",
          "name": "",
          "type": "address"
        }
      ],
      "stateMutability": "view",
      "type": "function"
    },
    {
      "inputs": [
        {
          "internalType": "address",
          "name": "_desiredTCO2",
          "type": "address"
        },
        {
          "internalType": "uint256",
          "name": "_amount",
          "type": "uint256"
        }
      ],
      "name": "redeemBCT",
      "outputs": [],
      "stateMutability": "nonpayable",
      "type": "function"
    },
    {
      "inputs": [],
      "name": "renounceOwnership",
      "outputs": [],
      "stateMutability": "nonpayable",
      "type": "function"
    },
    {
      "inputs": [
        {
          "internalType": "address",
          "name": "_address",
          "type": "address"
        }
      ],
      "name": "setToucanContractRegistry",
      "outputs": [],
      "stateMutability": "nonpayable",
      "type": "function"
    },
    {
      "inputs": [
        {
          "internalType": "address",
          "name": "newOwner",
          "type": "address"
        }
      ],
      "name": "transferOwnership",
      "outputs": [],
      "stateMutability": "nonpayable",
      "type": "function"
    }
  ],
  "bytecode": "0x6080604052606580546001600160a01b031990811673f2438a14f668b1bba53408346288f3d7c71c10a11790915560668054909116736739d490670b2710dc7e79bb12e455de33ee1cb617905534801561005857600080fd5b50610f31806100686000396000f3fe608060405234801561001057600080fd5b50600436106100b45760003560e01c8063bf35983811610071578063bf35983814610154578063c23f001f14610167578063c2e4c61314610192578063df0c5e15146101b2578063e882e37b146101c5578063f2fde38b146101d857600080fd5b806347e7ef24146100b957806370ca227c146100ce578063715018a6146101015780638da5cb5b146101095780639f0d28811461012e578063abf410e514610141575b600080fd5b6100cc6100c7366004610cf7565b6101eb565b005b6100ee6100dc366004610cab565b60696020526000908152604090205481565b6040519081526020015b60405180910390f35b6100cc6102e5565b6033546001600160a01b03165b6040516001600160a01b0390911681526020016100f8565b6100cc61013c366004610d20565b61031b565b606654610116906001600160a01b031681565b6100cc610162366004610cf7565b610537565b6100ee610175366004610cc5565b606760209081526000928352604080842090915290825290205481565b6100ee6101a0366004610cab565b60686020526000908152604090205481565b606554610116906001600160a01b031681565b6100cc6101d3366004610cab565b6107eb565b6100cc6101e6366004610cab565b610837565b60006101f6836108d2565b90508061024a5760405162461bcd60e51b815260206004820152601860248201527f43616e2774206465706f736974207468697320746f6b656e000000000000000060448201526064015b60405180910390fd5b61025f6001600160a01b03841633308561098c565b3360009081526067602090815260408083206001600160a01b038716845290915281208054849290610292908490610e8a565b9091555050604080513381526001600160a01b03851660208201529081018390527f8752a472e571a816aea92eec8dae9baf628e840f4929fbcc2d155e6233ff68a79060600160405180910390a1505050565b6033546001600160a01b0316331461030f5760405162461bcd60e51b815260040161024190610e55565b61031960006109ec565b565b6000610326856108d2565b9050806103755760405162461bcd60e51b815260206004820152601860248201527f43616e277420726574697265207468697320746f6b656e2e00000000000000006044820152606401610241565b3360009081526067602090815260408083206001600160a01b03891684529091529020548411156104065760405162461bcd60e51b815260206004820152603560248201527f596f7520646f6e2774206861766520656e6f756768206f6620746869732054436044820152742799101434b7103a34329031b7b73a3930b1ba149760591b6064820152608401610241565b604051633790cf5760e01b8152600481018590526001600160a01b03861690633790cf5790602401600060405180830381600087803b15801561044857600080fd5b505af115801561045c573d6000803e3d6000fd5b50503360009081526067602090815260408083206001600160a01b038b16845290915281208054889450909250610494908490610ea2565b90915550506001600160a01b03831660009081526068602090815260408083208590553383526069909152812080548692906104d1908490610e8a565b9091555050604080513381526001600160a01b0380881660208301529181018690529084166060820152608081018390527f1e39d0d333c0dcc0acbab7891b880a3843a3c42f9564c75870a960a095ed32289060a0015b60405180910390a15050505050565b3360009081526067602090815260408083206065546001600160a01b031684529091529020548111156105c05760405162461bcd60e51b815260206004820152602b60248201527f596f7520646f6e2774206861766520656e6f7567682042435420696e2074686960448201526a399031b7b73a3930b1ba1760a91b6064820152608401610241565b60006105cb836108d2565b90508061061a5760405162461bcd60e51b815260206004820181905260248201527f43616e27742072656465656d2042435420666f72207468697320746f6b656e2e6044820152606401610241565b604080516001808252818301909252600091602080830190803683375050604080516001808252818301909252929350600092915060208083019080368337019050509050848260008151811061068157634e487b7160e01b600052603260045260246000fd5b60200260200101906001600160a01b031690816001600160a01b03168152505083816000815181106106c357634e487b7160e01b600052603260045260246000fd5b60209081029190910101526065546040516315aaa0a160e11b81526001600160a01b0390911690632b554142906107009085908590600401610d9f565b600060405180830381600087803b15801561071a57600080fd5b505af115801561072e573d6000803e3d6000fd5b50503360009081526067602090815260408083206065546001600160a01b0316845290915281208054889450909250610768908490610ea2565b90915550503360009081526067602090815260408083206001600160a01b0389168452909152812080548692906107a0908490610e8a565b9091555050604080513381526001600160a01b03871660208201529081018590527f27d4634c833b7622a0acddbf7f746183625f105945e95c723ad1d5a9f2a0b6fc90606001610528565b6033546001600160a01b031633146108155760405162461bcd60e51b815260040161024190610e55565b606680546001600160a01b0319166001600160a01b0392909216919091179055565b6033546001600160a01b031633146108615760405162461bcd60e51b815260040161024190610e55565b6001600160a01b0381166108c65760405162461bcd60e51b815260206004820152602660248201527f4f776e61626c653a206e6577206f776e657220697320746865207a65726f206160448201526564647265737360d01b6064820152608401610241565b6108cf816109ec565b50565b60665460405163787d871360e01b81526001600160a01b038381166004830152600092839291169063787d87139060240160206040518083038186803b15801561091b57600080fd5b505afa15801561092f573d6000803e3d6000fd5b505050506040513d601f19601f820116820180604052508101906109539190610d63565b905080156109645750600192915050565b6065546001600160a01b03848116911614156109835750600192915050565b50600092915050565b604080516001600160a01b0385811660248301528416604482015260648082018490528251808303909101815260849091019091526020810180516001600160e01b03166323b872dd60e01b1790526109e6908590610a3e565b50505050565b603380546001600160a01b038381166001600160a01b0319831681179093556040519116919082907f8be0079c531659141344cd1fd0a4f28419497f9722a3daafe3b4186f6b6457e090600090a35050565b6000610a93826040518060400160405280602081526020017f5361666545524332303a206c6f772d6c6576656c2063616c6c206661696c6564815250856001600160a01b0316610b159092919063ffffffff16565b805190915015610b105780806020019051810190610ab19190610d63565b610b105760405162461bcd60e51b815260206004820152602a60248201527f5361666545524332303a204552433230206f7065726174696f6e20646964206e6044820152691bdd081cdd58d8d9595960b21b6064820152608401610241565b505050565b6060610b248484600085610b2e565b90505b9392505050565b606082471015610b8f5760405162461bcd60e51b815260206004820152602660248201527f416464726573733a20696e73756666696369656e742062616c616e636520666f6044820152651c8818d85b1b60d21b6064820152608401610241565b843b610bdd5760405162461bcd60e51b815260206004820152601d60248201527f416464726573733a2063616c6c20746f206e6f6e2d636f6e74726163740000006044820152606401610241565b600080866001600160a01b03168587604051610bf99190610d83565b60006040518083038185875af1925050503d8060008114610c36576040519150601f19603f3d011682016040523d82523d6000602084013e610c3b565b606091505b5091509150610c4b828286610c56565b979650505050505050565b60608315610c65575081610b27565b825115610c755782518084602001fd5b8160405162461bcd60e51b81526004016102419190610e22565b80356001600160a01b0381168114610ca657600080fd5b919050565b600060208284031215610cbc578081fd5b610b2782610c8f565b60008060408385031215610cd7578081fd5b610ce083610c8f565b9150610cee60208401610c8f565b90509250929050565b60008060408385031215610d09578182fd5b610d1283610c8f565b946020939093013593505050565b60008060008060808587031215610d35578182fd5b610d3e85610c8f565b935060208501359250610d5360408601610c8f565b9396929550929360600135925050565b600060208284031215610d74578081fd5b81518015158114610b27578182fd5b60008251610d95818460208701610eb9565b9190910192915050565b604080825283519082018190526000906020906060840190828701845b82811015610de15781516001600160a01b031684529284019290840190600101610dbc565b50505083810382850152845180825285830191830190845b81811015610e1557835183529284019291840191600101610df9565b5090979650505050505050565b6020815260008251806020840152610e41816040850160208701610eb9565b601f01601f19169190910160400192915050565b6020808252818101527f4f776e61626c653a2063616c6c6572206973206e6f7420746865206f776e6572604082015260600190565b60008219821115610e9d57610e9d610ee5565b500190565b600082821015610eb457610eb4610ee5565b500390565b60005b83811015610ed4578181015183820152602001610ebc565b838111156109e65750506000910152565b634e487b7160e01b600052601160045260246000fdfea2646970667358221220b7091fefa93b6adcd8710288260c9e415b02d11fd205e98429127fafc318b9b764736f6c63430008040033",
  "linkReferences": {},
  "deployedLinkReferences": {}
}